{
  "contractName": "Certificates",
  "abi": [
    {
      "inputs": [],
      "stateMutability": "nonpayable",
      "type": "constructor"
    },
    {
      "anonymous": false,
      "inputs": [
        {
          "indexed": false,
          "internalType": "uint256",
          "name": "id",
          "type": "uint256"
        },
        {
          "indexed": false,
          "internalType": "uint256",
          "name": "date",
          "type": "uint256"
        },
        {
          "indexed": false,
          "internalType": "string",
          "name": "docNumber",
          "type": "string"
        },
        {
          "indexed": false,
          "internalType": "uint256",
          "name": "chainId",
          "type": "uint256"
        },
        {
          "indexed": false,
          "internalType": "address",
          "name": "origin",
          "type": "address"
        }
      ],
      "name": "CertificateCreated",
      "type": "event"
    },
    {
      "inputs": [],
      "name": "amountCertificates",
      "outputs": [
        {
          "internalType": "uint256",
          "name": "",
          "type": "uint256"
        }
      ],
      "stateMutability": "view",
      "type": "function",
      "constant": true
    },
    {
      "inputs": [
        {
          "internalType": "uint256",
          "name": "id",
          "type": "uint256"
        }
      ],
      "name": "getCertificatesById",
      "outputs": [
        {
          "components": [
            {
              "internalType": "uint256",
              "name": "id",
              "type": "uint256"
            },
            {
              "components": [
                {
                  "internalType": "uint256",
                  "name": "id",
                  "type": "uint256"
                },
                {
                  "internalType": "string",
                  "name": "name",
                  "type": "string"
                },
                {
                  "internalType": "string",
                  "name": "lastname",
                  "type": "string"
                },
                {
                  "internalType": "string",
                  "name": "docNumber",
                  "type": "string"
                },
                {
                  "internalType": "string",
                  "name": "docType",
                  "type": "string"
                },
                {
                  "internalType": "string",
                  "name": "sex",
                  "type": "string"
                },
                {
                  "internalType": "uint256",
                  "name": "registrationNumber",
                  "type": "uint256"
                }
              ],
              "internalType": "struct Certificates.Student",
              "name": "student",
              "type": "tuple"
            },
            {
              "components": [
                {
                  "internalType": "string",
                  "name": "universityName",
                  "type": "string"
                },
                {
                  "internalType": "string",
                  "name": "academicUnit",
                  "type": "string"
                },
                {
                  "internalType": "string",
                  "name": "degreeProgramName",
                  "type": "string"
                },
                {
                  "internalType": "string",
                  "name": "degreeProgramCurriculum",
                  "type": "string"
                },
                {
                  "internalType": "string",
                  "name": "degreeType",
                  "type": "string"
                }
              ],
              "internalType": "struct Certificates.UniversityDegree",
              "name": "universityDegree",
              "type": "tuple"
            },
            {
              "internalType": "string",
              "name": "waferNumber",
              "type": "string"
            },
            {
              "internalType": "uint256",
              "name": "createdAt",
              "type": "uint256"
            },
            {
              "internalType": "uint256",
              "name": "updatedAt",
              "type": "uint256"
            },
            {
              "internalType": "bool",
              "name": "active",
              "type": "bool"
            }
          ],
          "internalType": "struct Certificates.Certificate",
          "name": "certificate",
          "type": "tuple"
        }
      ],
      "stateMutability": "view",
      "type": "function",
      "constant": true
    },
    {
      "inputs": [
        {
          "internalType": "uint256",
          "name": "studentId",
          "type": "uint256"
        }
      ],
      "name": "getCertificatesByStudentId",
      "outputs": [
        {
          "components": [
            {
              "internalType": "uint256",
              "name": "id",
              "type": "uint256"
            },
            {
              "components": [
                {
                  "internalType": "uint256",
                  "name": "id",
                  "type": "uint256"
                },
                {
                  "internalType": "string",
                  "name": "name",
                  "type": "string"
                },
                {
                  "internalType": "string",
                  "name": "lastname",
                  "type": "string"
                },
                {
                  "internalType": "string",
                  "name": "docNumber",
                  "type": "string"
                },
                {
                  "internalType": "string",
                  "name": "docType",
                  "type": "string"
                },
                {
                  "internalType": "string",
                  "name": "sex",
                  "type": "string"
                },
                {
                  "internalType": "uint256",
                  "name": "registrationNumber",
                  "type": "uint256"
                }
              ],
              "internalType": "struct Certificates.Student",
              "name": "student",
              "type": "tuple"
            },
            {
              "components": [
                {
                  "internalType": "string",
                  "name": "universityName",
                  "type": "string"
                },
                {
                  "internalType": "string",
                  "name": "academicUnit",
                  "type": "string"
                },
                {
                  "internalType": "string",
                  "name": "degreeProgramName",
                  "type": "string"
                },
                {
                  "internalType": "string",
                  "name": "degreeProgramCurriculum",
                  "type": "string"
                },
                {
                  "internalType": "string",
                  "name": "degreeType",
                  "type": "string"
                }
              ],
              "internalType": "struct Certificates.UniversityDegree",
              "name": "universityDegree",
              "type": "tuple"
            },
            {
              "internalType": "string",
              "name": "waferNumber",
              "type": "string"
            },
            {
              "internalType": "uint256",
              "name": "createdAt",
              "type": "uint256"
            },
            {
              "internalType": "uint256",
              "name": "updatedAt",
              "type": "uint256"
            },
            {
              "internalType": "bool",
              "name": "active",
              "type": "bool"
            }
          ],
          "internalType": "struct Certificates.Certificate[]",
          "name": "",
          "type": "tuple[]"
        }
      ],
      "stateMutability": "view",
      "type": "function",
      "constant": true
    },
    {
      "inputs": [
        {
          "components": [
            {
              "internalType": "uint256",
              "name": "id",
              "type": "uint256"
            },
            {
              "components": [
                {
                  "internalType": "uint256",
                  "name": "id",
                  "type": "uint256"
                },
                {
                  "internalType": "string",
                  "name": "name",
                  "type": "string"
                },
                {
                  "internalType": "string",
                  "name": "lastname",
                  "type": "string"
                },
                {
                  "internalType": "string",
                  "name": "docNumber",
                  "type": "string"
                },
                {
                  "internalType": "string",
                  "name": "docType",
                  "type": "string"
                },
                {
                  "internalType": "string",
                  "name": "sex",
                  "type": "string"
                },
                {
                  "internalType": "uint256",
                  "name": "registrationNumber",
                  "type": "uint256"
                }
              ],
              "internalType": "struct Certificates.Student",
              "name": "student",
              "type": "tuple"
            },
            {
              "components": [
                {
                  "internalType": "string",
                  "name": "universityName",
                  "type": "string"
                },
                {
                  "internalType": "string",
                  "name": "academicUnit",
                  "type": "string"
                },
                {
                  "internalType": "string",
                  "name": "degreeProgramName",
                  "type": "string"
                },
                {
                  "internalType": "string",
                  "name": "degreeProgramCurriculum",
                  "type": "string"
                },
                {
                  "internalType": "string",
                  "name": "degreeType",
                  "type": "string"
                }
              ],
              "internalType": "struct Certificates.UniversityDegree",
              "name": "universityDegree",
              "type": "tuple"
            },
            {
              "internalType": "string",
              "name": "waferNumber",
              "type": "string"
            },
            {
              "internalType": "uint256",
              "name": "createdAt",
              "type": "uint256"
            },
            {
              "internalType": "uint256",
              "name": "updatedAt",
              "type": "uint256"
            },
            {
              "internalType": "bool",
              "name": "active",
              "type": "bool"
            }
          ],
          "internalType": "struct Certificates.Certificate",
          "name": "_certificate",
          "type": "tuple"
        }
      ],
      "name": "createCertificate",
      "outputs": [],
      "stateMutability": "nonpayable",
      "type": "function"
    },
    {
      "inputs": [
        {
          "internalType": "uint256",
          "name": "certificateId",
          "type": "uint256"
        }
      ],
      "name": "deleteCertificate",
      "outputs": [],
      "stateMutability": "nonpayable",
      "type": "function"
    }
  ],
  "bytecode": "0x608060405234801561001057600080fd5b5060008081905550612d7d806100276000396000f3fe608060405234801561001057600080fd5b50600436106100575760003560e01c8063371b2c0f1461005c578063533aaf6e14610078578063883eeb6e146100a8578063c5463b31146100c4578063df6c55ec146100e2575b600080fd5b61007660048036038101906100719190612423565b610112565b005b610092600480360381019061008d919061246c565b610627565b60405161009f919061291b565b60405180910390f35b6100c260048036038101906100bd919061246c565b610d0f565b005b6100cc61163c565b6040516100d9919061293d565b60405180910390f35b6100fc60048036038101906100f7919061246c565b611642565b60405161010991906128d9565b60405180910390f35b60008081548092919061012490612bbc565b919050555060008054905060006002836060015160405161014591906128c2565b90815260200160405180910390205414610194576040517f08c379a000000000000000000000000000000000000000000000000000000000815260040161018b906128fb565b60405180910390fd5b60006003600084602001516000015181526020019081526020016000208054806020026020016040519081016040528092919081815260200182805480156101fb57602002820191906000526020600020905b8154815260200190600101908083116101e7575b505050505090506040518060e00160405280838152602001846020015181526020018460400151815260200184606001518152602001428152602001428152602001600115158152506001600084815260200190815260200160002060008201518160000155602082015181600101600082015181600001556020820151816001019080519060200190610290929190611e82565b5060408201518160020190805190602001906102ad929190611e82565b5060608201518160030190805190602001906102ca929190611e82565b5060808201518160040190805190602001906102e7929190611e82565b5060a0820151816005019080519060200190610304929190611e82565b5060c0820151816006015550506040820151816008016000820151816000019080519060200190610336929190611e82565b506020820151816001019080519060200190610353929190611e82565b506040820151816002019080519060200190610370929190611e82565b50606082015181600301908051906020019061038d929190611e82565b5060808201518160040190805190602001906103aa929190611e82565b505050606082015181600d0190805190602001906103c9929190611e82565b50608082015181600e015560a082015181600f015560c08201518160100160006101000a81548160ff021916908315150217905550905050816002846060015160405161041691906128c2565b9081526020016040518091039020819055506000815114156104d457600167ffffffffffffffff81111561044d5761044c612c92565b5b60405190808252806020026020018201604052801561047b5781602001602082028036833780820191505090505b509050818160008151811061049357610492612c63565b5b6020026020010181815250508060036000856020015160000151815260200190815260200160002090805190602001906104ce929190611f08565b506105db565b6000600182516104e49190612a79565b67ffffffffffffffff8111156104fd576104fc612c92565b5b60405190808252806020026020018201604052801561052b5781602001602082028036833780820191505090505b50905060005b82518110156105875782818151811061054d5761054c612c63565b5b602002602001015182828151811061056857610567612c63565b5b602002602001018181525050808061057f90612bbc565b915050610531565b50828183518151811061059d5761059c612c63565b5b6020026020010181815250508060036000866020015160000151815260200190815260200160002090805190602001906105d8929190611f08565b50505b7ff52f2e805446b7719a3da77893242ff24303bab0e73cb02352846d0e7529574b8242856020015160600151463260405161061a959493929190612958565b60405180910390a1505050565b61062f611f55565b600160008381526020019081526020016000206040518060e001604052908160008201548152602001600182016040518060e00160405290816000820154815260200160018201805461068190612b59565b80601f01602080910402602001604051908101604052809291908181526020018280546106ad90612b59565b80156106fa5780601f106106cf576101008083540402835291602001916106fa565b820191906000526020600020905b8154815290600101906020018083116106dd57829003601f168201915b5050505050815260200160028201805461071390612b59565b80601f016020809104026020016040519081016040528092919081815260200182805461073f90612b59565b801561078c5780601f106107615761010080835404028352916020019161078c565b820191906000526020600020905b81548152906001019060200180831161076f57829003601f168201915b505050505081526020016003820180546107a590612b59565b80601f01602080910402602001604051908101604052809291908181526020018280546107d190612b59565b801561081e5780601f106107f35761010080835404028352916020019161081e565b820191906000526020600020905b81548152906001019060200180831161080157829003601f168201915b5050505050815260200160048201805461083790612b59565b80601f016020809104026020016040519081016040528092919081815260200182805461086390612b59565b80156108b05780601f10610885576101008083540402835291602001916108b0565b820191906000526020600020905b81548152906001019060200180831161089357829003601f168201915b505050505081526020016005820180546108c990612b59565b80601f01602080910402602001604051908101604052809291908181526020018280546108f590612b59565b80156109425780601f1061091757610100808354040283529160200191610942565b820191906000526020600020905b81548152906001019060200180831161092557829003601f168201915b505050505081526020016006820154815250508152602001600882016040518060a001604052908160008201805461097990612b59565b80601f01602080910402602001604051908101604052809291908181526020018280546109a590612b59565b80156109f25780601f106109c7576101008083540402835291602001916109f2565b820191906000526020600020905b8154815290600101906020018083116109d557829003601f168201915b50505050508152602001600182018054610a0b90612b59565b80601f0160208091040260200160405190810160405280929190818152602001828054610a3790612b59565b8015610a845780601f10610a5957610100808354040283529160200191610a84565b820191906000526020600020905b815481529060010190602001808311610a6757829003601f168201915b50505050508152602001600282018054610a9d90612b59565b80601f0160208091040260200160405190810160405280929190818152602001828054610ac990612b59565b8015610b165780601f10610aeb57610100808354040283529160200191610b16565b820191906000526020600020905b815481529060010190602001808311610af957829003601f168201915b50505050508152602001600382018054610b2f90612b59565b80601f0160208091040260200160405190810160405280929190818152602001828054610b5b90612b59565b8015610ba85780601f10610b7d57610100808354040283529160200191610ba8565b820191906000526020600020905b815481529060010190602001808311610b8b57829003601f168201915b50505050508152602001600482018054610bc190612b59565b80601f0160208091040260200160405190810160405280929190818152602001828054610bed90612b59565b8015610c3a5780601f10610c0f57610100808354040283529160200191610c3a565b820191906000526020600020905b815481529060010190602001808311610c1d57829003601f168201915b5050505050815250508152602001600d82018054610c5790612b59565b80601f0160208091040260200160405190810160405280929190818152602001828054610c8390612b59565b8015610cd05780601f10610ca557610100808354040283529160200191610cd0565b820191906000526020600020905b815481529060010190602001808311610cb357829003601f168201915b50505050508152602001600e8201548152602001600f82015481526020016010820160009054906101000a900460ff1615151515815250509050919050565b6000600160008381526020019081526020016000206040518060e001604052908160008201548152602001600182016040518060e001604052908160008201548152602001600182018054610d6390612b59565b80601f0160208091040260200160405190810160405280929190818152602001828054610d8f90612b59565b8015610ddc5780601f10610db157610100808354040283529160200191610ddc565b820191906000526020600020905b815481529060010190602001808311610dbf57829003601f168201915b50505050508152602001600282018054610df590612b59565b80601f0160208091040260200160405190810160405280929190818152602001828054610e2190612b59565b8015610e6e5780601f10610e4357610100808354040283529160200191610e6e565b820191906000526020600020905b815481529060010190602001808311610e5157829003601f168201915b50505050508152602001600382018054610e8790612b59565b80601f0160208091040260200160405190810160405280929190818152602001828054610eb390612b59565b8015610f005780601f10610ed557610100808354040283529160200191610f00565b820191906000526020600020905b815481529060010190602001808311610ee357829003601f168201915b50505050508152602001600482018054610f1990612b59565b80601f0160208091040260200160405190810160405280929190818152602001828054610f4590612b59565b8015610f925780601f10610f6757610100808354040283529160200191610f92565b820191906000526020600020905b815481529060010190602001808311610f7557829003601f168201915b50505050508152602001600582018054610fab90612b59565b80601f0160208091040260200160405190810160405280929190818152602001828054610fd790612b59565b80156110245780601f10610ff957610100808354040283529160200191611024565b820191906000526020600020905b81548152906001019060200180831161100757829003601f168201915b505050505081526020016006820154815250508152602001600882016040518060a001604052908160008201805461105b90612b59565b80601f016020809104026020016040519081016040528092919081815260200182805461108790612b59565b80156110d45780601f106110a9576101008083540402835291602001916110d4565b820191906000526020600020905b8154815290600101906020018083116110b757829003601f168201915b505050505081526020016001820180546110ed90612b59565b80601f016020809104026020016040519081016040528092919081815260200182805461111990612b59565b80156111665780601f1061113b57610100808354040283529160200191611166565b820191906000526020600020905b81548152906001019060200180831161114957829003601f168201915b5050505050815260200160028201805461117f90612b59565b80601f01602080910402602001604051908101604052809291908181526020018280546111ab90612b59565b80156111f85780601f106111cd576101008083540402835291602001916111f8565b820191906000526020600020905b8154815290600101906020018083116111db57829003601f168201915b5050505050815260200160038201805461121190612b59565b80601f016020809104026020016040519081016040528092919081815260200182805461123d90612b59565b801561128a5780601f1061125f5761010080835404028352916020019161128a565b820191906000526020600020905b81548152906001019060200180831161126d57829003601f168201915b505050505081526020016004820180546112a390612b59565b80601f01602080910402602001604051908101604052809291908181526020018280546112cf90612b59565b801561131c5780601f106112f15761010080835404028352916020019161131c565b820191906000526020600020905b8154815290600101906020018083116112ff57829003601f168201915b5050505050815250508152602001600d8201805461133990612b59565b80601f016020809104026020016040519081016040528092919081815260200182805461136590612b59565b80156113b25780601f10611387576101008083540402835291602001916113b2565b820191906000526020600020905b81548152906001019060200180831161139557829003601f168201915b50505050508152602001600e8201548152602001600f82015481526020016010820160009054906101000a900460ff161515151581525050905060008160c0019015159081151581525050428160a0018181525050806001600084815260200190815260200160002060008201518160000155602082015181600101600082015181600001556020820151816001019080519060200190611454929190611e82565b506040820151816002019080519060200190611471929190611e82565b50606082015181600301908051906020019061148e929190611e82565b5060808201518160040190805190602001906114ab929190611e82565b5060a08201518160050190805190602001906114c8929190611e82565b5060c08201518160060155505060408201518160080160008201518160000190805190602001906114fa929190611e82565b506020820151816001019080519060200190611517929190611e82565b506040820151816002019080519060200190611534929190611e82565b506060820151816003019080519060200190611551929190611e82565b50608082015181600401908051906020019061156e929190611e82565b505050606082015181600d01908051906020019061158d929190611e82565b50608082015181600e015560a082015181600f015560c08201518160100160006101000a81548160ff0219169083151502179055509050506000600282606001516040516115db91906128c2565b9081526020016040518091039020819055507ff52f2e805446b7719a3da77893242ff24303bab0e73cb02352846d0e7529574b8160000151428360200151606001514632604051611630959493929190612958565b60405180910390a15050565b60005481565b60606000600360008481526020019081526020016000208054806020026020016040519081016040528092919081815260200182805480156116a357602002820191906000526020600020905b81548152602001906001019080831161168f575b505050505090506000815167ffffffffffffffff8111156116c7576116c6612c92565b5b60405190808252806020026020018201604052801561170057816020015b6116ed611f55565b8152602001906001900390816116e55790505b50905060005b8251811015611e77576001600084838151811061172657611725612c63565b5b6020026020010151815260200190815260200160002060100160009054906101000a900460ff1615611e64576001600084838151811061176957611768612c63565b5b602002602001015181526020019081526020016000206040518060e001604052908160008201548152602001600182016040518060e0016040529081600082015481526020016001820180546117be90612b59565b80601f01602080910402602001604051908101604052809291908181526020018280546117ea90612b59565b80156118375780601f1061180c57610100808354040283529160200191611837565b820191906000526020600020905b81548152906001019060200180831161181a57829003601f168201915b5050505050815260200160028201805461185090612b59565b80601f016020809104026020016040519081016040528092919081815260200182805461187c90612b59565b80156118c95780601f1061189e576101008083540402835291602001916118c9565b820191906000526020600020905b8154815290600101906020018083116118ac57829003601f168201915b505050505081526020016003820180546118e290612b59565b80601f016020809104026020016040519081016040528092919081815260200182805461190e90612b59565b801561195b5780601f106119305761010080835404028352916020019161195b565b820191906000526020600020905b81548152906001019060200180831161193e57829003601f168201915b5050505050815260200160048201805461197490612b59565b80601f01602080910402602001604051908101604052809291908181526020018280546119a090612b59565b80156119ed5780601f106119c2576101008083540402835291602001916119ed565b820191906000526020600020905b8154815290600101906020018083116119d057829003601f168201915b50505050508152602001600582018054611a0690612b59565b80601f0160208091040260200160405190810160405280929190818152602001828054611a3290612b59565b8015611a7f5780601f10611a5457610100808354040283529160200191611a7f565b820191906000526020600020905b815481529060010190602001808311611a6257829003601f168201915b505050505081526020016006820154815250508152602001600882016040518060a0016040529081600082018054611ab690612b59565b80601f0160208091040260200160405190810160405280929190818152602001828054611ae290612b59565b8015611b2f5780601f10611b0457610100808354040283529160200191611b2f565b820191906000526020600020905b815481529060010190602001808311611b1257829003601f168201915b50505050508152602001600182018054611b4890612b59565b80601f0160208091040260200160405190810160405280929190818152602001828054611b7490612b59565b8015611bc15780601f10611b9657610100808354040283529160200191611bc1565b820191906000526020600020905b815481529060010190602001808311611ba457829003601f168201915b50505050508152602001600282018054611bda90612b59565b80601f0160208091040260200160405190810160405280929190818152602001828054611c0690612b59565b8015611c535780601f10611c2857610100808354040283529160200191611c53565b820191906000526020600020905b815481529060010190602001808311611c3657829003601f168201915b50505050508152602001600382018054611c6c90612b59565b80601f0160208091040260200160405190810160405280929190818152602001828054611c9890612b59565b8015611ce55780601f10611cba57610100808354040283529160200191611ce5565b820191906000526020600020905b815481529060010190602001808311611cc857829003601f168201915b50505050508152602001600482018054611cfe90612b59565b80601f0160208091040260200160405190810160405280929190818152602001828054611d2a90612b59565b8015611d775780601f10611d4c57610100808354040283529160200191611d77565b820191906000526020600020905b815481529060010190602001808311611d5a57829003601f168201915b5050505050815250508152602001600d82018054611d9490612b59565b80601f0160208091040260200160405190810160405280929190818152602001828054611dc090612b59565b8015611e0d5780601f10611de257610100808354040283529160200191611e0d565b820191906000526020600020905b815481529060010190602001808311611df057829003601f168201915b50505050508152602001600e8201548152602001600f82015481526020016010820160009054906101000a900460ff161515151581525050828281518110611e5857611e57612c63565b5b60200260200101819052505b8080611e6f90612bbc565b915050611706565b508092505050919050565b828054611e8e90612b59565b90600052602060002090601f016020900481019282611eb05760008555611ef7565b82601f10611ec957805160ff1916838001178555611ef7565b82800160010185558215611ef7579182015b82811115611ef6578251825591602001919060010190611edb565b5b509050611f049190611fa0565b5090565b828054828255906000526020600020908101928215611f44579160200282015b82811115611f43578251825591602001919060010190611f28565b5b509050611f519190611fa0565b5090565b6040518060e0016040528060008152602001611f6f611fbd565b8152602001611f7c611ffa565b81526020016060815260200160008152602001600081526020016000151581525090565b5b80821115611fb9576000816000905550600101611fa1565b5090565b6040518060e00160405280600081526020016060815260200160608152602001606081526020016060815260200160608152602001600081525090565b6040518060a0016040528060608152602001606081526020016060815260200160608152602001606081525090565b600061203c612037846129d7565b6129b2565b90508281526020810184848401111561205857612057612cd0565b5b612063848285612b17565b509392505050565b60008135905061207a81612d19565b92915050565b600082601f83011261209557612094612cc1565b5b81356120a5848260208601612029565b91505092915050565b600060e082840312156120c4576120c3612cc6565b5b6120ce60e06129b2565b905060006120de8482850161240e565b600083015250602082013567ffffffffffffffff81111561210257612101612ccb565b5b61210e848285016121b6565b602083015250604082013567ffffffffffffffff81111561213257612131612ccb565b5b61213e848285016122f6565b604083015250606082013567ffffffffffffffff81111561216257612161612ccb565b5b61216e84828501612080565b60608301525060806121828482850161240e565b60808301525060a06121968482850161240e565b60a08301525060c06121aa8482850161206b565b60c08301525092915050565b600060e082840312156121cc576121cb612cc6565b5b6121d660e06129b2565b905060006121e68482850161240e565b600083015250602082013567ffffffffffffffff81111561220a57612209612ccb565b5b61221684828501612080565b602083015250604082013567ffffffffffffffff81111561223a57612239612ccb565b5b61224684828501612080565b604083015250606082013567ffffffffffffffff81111561226a57612269612ccb565b5b61227684828501612080565b606083015250608082013567ffffffffffffffff81111561229a57612299612ccb565b5b6122a684828501612080565b60808301525060a082013567ffffffffffffffff8111156122ca576122c9612ccb565b5b6122d684828501612080565b60a08301525060c06122ea8482850161240e565b60c08301525092915050565b600060a0828403121561230c5761230b612cc6565b5b61231660a06129b2565b9050600082013567ffffffffffffffff81111561233657612335612ccb565b5b61234284828501612080565b600083015250602082013567ffffffffffffffff81111561236657612365612ccb565b5b61237284828501612080565b602083015250604082013567ffffffffffffffff81111561239657612395612ccb565b5b6123a284828501612080565b604083015250606082013567ffffffffffffffff8111156123c6576123c5612ccb565b5b6123d284828501612080565b606083015250608082013567ffffffffffffffff8111156123f6576123f5612ccb565b5b61240284828501612080565b60808301525092915050565b60008135905061241d81612d30565b92915050565b60006020828403121561243957612438612cda565b5b600082013567ffffffffffffffff81111561245757612456612cd5565b5b612463848285016120ae565b91505092915050565b60006020828403121561248257612481612cda565b5b60006124908482850161240e565b91505092915050565b60006124a58383612606565b905092915050565b6124b681612acf565b82525050565b60006124c782612a18565b6124d18185612a3b565b9350836020820285016124e385612a08565b8060005b8581101561251f57848403895281516125008582612499565b945061250b83612a2e565b925060208a019950506001810190506124e7565b50829750879550505050505092915050565b61253a81612ae1565b82525050565b600061254b82612a23565b6125558185612a4c565b9350612565818560208601612b26565b61256e81612cdf565b840191505092915050565b600061258482612a23565b61258e8185612a5d565b935061259e818560208601612b26565b6125a781612cdf565b840191505092915050565b60006125bd82612a23565b6125c78185612a6e565b93506125d7818560208601612b26565b80840191505092915050565b60006125f0601d83612a5d565b91506125fb82612cf0565b602082019050919050565b600060e08301600083015161261e60008601826128a4565b5060208301518482036020860152612636828261275a565b915050604083015184820360408601526126508282612812565b9150506060830151848203606086015261266a8282612540565b915050608083015161267f60808601826128a4565b5060a083015161269260a08601826128a4565b5060c08301516126a560c0860182612531565b508091505092915050565b600060e0830160008301516126c860008601826128a4565b50602083015184820360208601526126e0828261275a565b915050604083015184820360408601526126fa8282612812565b915050606083015184820360608601526127148282612540565b915050608083015161272960808601826128a4565b5060a083015161273c60a08601826128a4565b5060c083015161274f60c0860182612531565b508091505092915050565b600060e08301600083015161277260008601826128a4565b506020830151848203602086015261278a8282612540565b915050604083015184820360408601526127a48282612540565b915050606083015184820360608601526127be8282612540565b915050608083015184820360808601526127d88282612540565b91505060a083015184820360a08601526127f28282612540565b91505060c083015161280760c08601826128a4565b508091505092915050565b600060a083016000830151848203600086015261282f8282612540565b915050602083015184820360208601526128498282612540565b915050604083015184820360408601526128638282612540565b9150506060830151848203606086015261287d8282612540565b915050608083015184820360808601526128978282612540565b9150508091505092915050565b6128ad81612b0d565b82525050565b6128bc81612b0d565b82525050565b60006128ce82846125b2565b915081905092915050565b600060208201905081810360008301526128f381846124bc565b905092915050565b60006020820190508181036000830152612914816125e3565b9050919050565b6000602082019050818103600083015261293581846126b0565b905092915050565b600060208201905061295260008301846128b3565b92915050565b600060a08201905061296d60008301886128b3565b61297a60208301876128b3565b818103604083015261298c8186612579565b905061299b60608301856128b3565b6129a860808301846124ad565b9695505050505050565b60006129bc6129cd565b90506129c88282612b8b565b919050565b6000604051905090565b600067ffffffffffffffff8211156129f2576129f1612c92565b5b6129fb82612cdf565b9050602081019050919050565b6000819050602082019050919050565b600081519050919050565b600081519050919050565b6000602082019050919050565b600082825260208201905092915050565b600082825260208201905092915050565b600082825260208201905092915050565b600081905092915050565b6000612a8482612b0d565b9150612a8f83612b0d565b9250827fffffffffffffffffffffffffffffffffffffffffffffffffffffffffffffffff03821115612ac457612ac3612c05565b5b828201905092915050565b6000612ada82612aed565b9050919050565b60008115159050919050565b600073ffffffffffffffffffffffffffffffffffffffff82169050919050565b6000819050919050565b82818337600083830152505050565b60005b83811015612b44578082015181840152602081019050612b29565b83811115612b53576000848401525b50505050565b60006002820490506001821680612b7157607f821691505b60208210811415612b8557612b84612c34565b5b50919050565b612b9482612cdf565b810181811067ffffffffffffffff82111715612bb357612bb2612c92565b5b80604052505050565b6000612bc782612b0d565b91507fffffffffffffffffffffffffffffffffffffffffffffffffffffffffffffffff821415612bfa57612bf9612c05565b5b600182019050919050565b7f4e487b7100000000000000000000000000000000000000000000000000000000600052601160045260246000fd5b7f4e487b7100000000000000000000000000000000000000000000000000000000600052602260045260246000fd5b7f4e487b7100000000000000000000000000000000000000000000000000000000600052603260045260246000fd5b7f4e487b7100000000000000000000000000000000000000000000000000000000600052604160045260246000fd5b600080fd5b600080fd5b600080fd5b600080fd5b600080fd5b600080fd5b6000601f19601f8301169050919050565b7f456c206e756d65726f206465206f626c6561207961206578697374652e000000600082015250565b612d2281612ae1565b8114612d2d57600080fd5b50565b612d3981612b0d565b8114612d4457600080fd5b5056fea2646970667358221220d8b280c1b3f8b9696d67de6b01027bb6ceb43c758e4baa2a5e51d3744f04ac1064736f6c63430008060033",
  "immutableReferences": {},
  "source": "// SPDX-License-Identifier: GPL-3.0\npragma solidity >=0.8.6 <0.9.0;\n\ncontract Certificates {\n    // Variables.\n    uint256 public amountCertificates;\n\n    constructor() {\n        amountCertificates = 0;\n    }\n\n    struct Student {\n        uint256 id;\n        string name;\n        string lastname;\n        string docNumber;\n        string docType;\n        string sex;\n        uint256 registrationNumber;\n    }\n    struct UniversityDegree {\n        string universityName;\n        string academicUnit; // Facultad\n        string degreeProgramName; // Nombre de la carrera\n        string degreeProgramCurriculum; // Plan de estudios\n        string degreeType; // Tipo de carrara\n    }\n\n    struct Certificate {\n        uint256 id;\n        Student student;\n        UniversityDegree universityDegree;\n        string waferNumber; // Numero de oblea.\n        uint256 createdAt;\n        uint256 updatedAt;\n        bool active; // Activo\n    }\n\n    event CertificateCreated(\n        uint256 id,\n        uint256 date,\n        string docNumber,\n        uint chainId,\n        address origin\n    );\n\n    // Titulos (idTitulo => titulo).\n    mapping(uint256 => Certificate) private certificates;\n\n    // Obleas (codigo_oblea => idTitulo).\n    mapping(string => uint256) private wafers;\n\n    // Estudiantes con titulos. (idEstudiante => idTitulo).\n    mapping(uint256 => uint256[]) private student_has_certificates;\n\n    function getCertificatesById(\n        uint256 id\n    ) public view returns (Certificate memory certificate) {\n        return certificates[id];\n    }\n\n    function getCertificatesByStudentId(\n        uint256 studentId\n    ) public view returns (Certificate[] memory) {\n        uint256[] memory studentCertificatesids = student_has_certificates[\n            studentId\n        ];\n        Certificate[] memory studentCertificates = new Certificate[](\n            studentCertificatesids.length\n        );\n        for (uint256 i = 0; i < studentCertificatesids.length; i++) {\n            // Filtro aquellas activas.\n            if (certificates[studentCertificatesids[i]].active) {\n                studentCertificates[i] = certificates[\n                    studentCertificatesids[i]\n                ];\n            }\n            // studentCertificates[i] = certificates[studentCertificatesids[i]];\n        }\n        return studentCertificates;\n    }\n\n    function createCertificate(Certificate memory _certificate) public {\n        // Aumento el indice.\n        amountCertificates++;\n        // Creo el nuevo Id del titulo.\n        uint256 newCertificateId = amountCertificates;\n\n        // Controlo que no exista el codigo de la oblea en el sistema.\n        require(\n            wafers[_certificate.waferNumber] == 0,\n            \"El numero de oblea ya existe.\"\n        );\n\n        // Obtengo los ids de los titulos del estudiante.\n        uint256[] memory studentCertificatesids = student_has_certificates[\n            _certificate.student.id\n        ];\n\n        // Creo el titulo con el nuevo id y lo guardo en el mapa.\n        certificates[newCertificateId] = Certificate(\n            newCertificateId,\n            _certificate.student,\n            _certificate.universityDegree,\n            _certificate.waferNumber,\n            block.timestamp,\n            block.timestamp,\n            true\n        );\n\n        // Relaciono la oblea con el titulo.\n        wafers[_certificate.waferNumber] = newCertificateId;\n\n        // Creo la relacion entre titulo y el estudiante.\n\n        // Si el estudiante es nuevo. No tiene titulos asociados.\n        if (studentCertificatesids.length == 0) {\n            // Reutilizo la lista.\n            studentCertificatesids = new uint256[](1);\n            // Guardo el id del titulo.\n            studentCertificatesids[0] = newCertificateId;\n            student_has_certificates[\n                _certificate.student.id\n            ] = studentCertificatesids;\n\n            // todo: realizar controles para no sobreescribir claves.\n        } else {\n            // Creo la nueva lista de studentCertificatesids.\n            uint256[] memory newStudentCertificatesIds = new uint256[](\n                studentCertificatesids.length + 1\n            );\n            for (uint256 i = 0; i < studentCertificatesids.length; i++) {\n                newStudentCertificatesIds[i] = studentCertificatesids[i];\n            }\n            // Agrego el nuevo id del titulo.\n            newStudentCertificatesIds[\n                studentCertificatesids.length\n            ] = newCertificateId;\n            student_has_certificates[\n                _certificate.student.id\n            ] = newStudentCertificatesIds;\n        }\n        emit CertificateCreated(\n            newCertificateId,\n            block.timestamp,\n            _certificate.student.docNumber,\n            block.chainid,\n            tx.origin\n        );\n    }\n\n    function deleteCertificate(uint256 certificateId) public {\n        // Obtengo el titulo.\n        Certificate memory certificate = certificates[certificateId];\n        // Inhabilito el acceso del titulo.\n        certificate.active = false;\n        certificate.updatedAt = block.timestamp;\n        certificates[certificateId] = certificate;\n\n        // Elimino la oblea.\n        wafers[certificate.waferNumber] = 0;\n\n        emit CertificateCreated(\n            certificate.id,\n            block.timestamp,\n            certificate.student.docNumber,\n            block.chainid,\n            tx.origin\n        );\n    }\n}\n",
  "sourcePath": "/Users/federicoverges/Fede/ProyectosPersonales/Tesis/blockchain/certificateContract/contracts/Certificates.sol",
  "compiler": {
    "name": "solc",
    "version": "0.8.6+commit.11564f7e.Emscripten.clang"
  },
  "schemaVersion": "3.4.16",
  "updatedAt": "2023-10-24T03:14:16.101Z",
  "networkType": "ethereum",
  "devdoc": {
    "kind": "dev",
    "methods": {},
    "version": 1
  },
  "userdoc": {
    "kind": "user",
    "methods": {},
    "version": 1
  }
}