{
  "contractName": "Certificates",
  "abi": [
    {
      "inputs": [],
      "stateMutability": "nonpayable",
      "type": "constructor"
    },
    {
      "anonymous": false,
      "inputs": [
        {
          "indexed": false,
          "internalType": "uint256",
          "name": "id",
          "type": "uint256"
        },
        {
          "indexed": false,
          "internalType": "uint256",
          "name": "date",
          "type": "uint256"
        },
        {
          "indexed": false,
          "internalType": "string",
          "name": "docNumber",
          "type": "string"
        },
        {
          "indexed": false,
          "internalType": "uint256",
          "name": "chainId",
          "type": "uint256"
        },
        {
          "indexed": false,
          "internalType": "address",
          "name": "origin",
          "type": "address"
        }
      ],
      "name": "CertificateCreated",
      "type": "event"
    },
    {
      "inputs": [],
      "name": "amountCertificates",
      "outputs": [
        {
          "internalType": "uint256",
          "name": "",
          "type": "uint256"
        }
      ],
      "stateMutability": "view",
      "type": "function"
    },
    {
      "inputs": [
        {
          "internalType": "uint256",
          "name": "id",
          "type": "uint256"
        }
      ],
      "name": "getCertificatesById",
      "outputs": [
        {
          "components": [
            {
              "internalType": "uint256",
              "name": "id",
              "type": "uint256"
            },
            {
              "components": [
                {
                  "internalType": "uint256",
                  "name": "id",
                  "type": "uint256"
                },
                {
                  "internalType": "string",
                  "name": "name",
                  "type": "string"
                },
                {
                  "internalType": "string",
                  "name": "lastname",
                  "type": "string"
                },
                {
                  "internalType": "string",
                  "name": "docNumber",
                  "type": "string"
                },
                {
                  "internalType": "string",
                  "name": "docType",
                  "type": "string"
                },
                {
                  "internalType": "string",
                  "name": "sex",
                  "type": "string"
                },
                {
                  "internalType": "uint256",
                  "name": "registrationNumber",
                  "type": "uint256"
                }
              ],
              "internalType": "struct Certificates.Student",
              "name": "student",
              "type": "tuple"
            },
            {
              "components": [
                {
                  "internalType": "string",
                  "name": "universityName",
                  "type": "string"
                },
                {
                  "internalType": "string",
                  "name": "academicUnit",
                  "type": "string"
                },
                {
                  "internalType": "string",
                  "name": "degreeProgramName",
                  "type": "string"
                },
                {
                  "internalType": "string",
                  "name": "degreeProgramCurriculum",
                  "type": "string"
                },
                {
                  "internalType": "string",
                  "name": "degreeType",
                  "type": "string"
                }
              ],
              "internalType": "struct Certificates.UniversityDegree",
              "name": "universityDegree",
              "type": "tuple"
            },
            {
              "internalType": "string",
              "name": "waferNumber",
              "type": "string"
            },
            {
              "internalType": "uint256",
              "name": "createdAt",
              "type": "uint256"
            },
            {
              "internalType": "uint256",
              "name": "updatedAt",
              "type": "uint256"
            },
            {
              "internalType": "bool",
              "name": "active",
              "type": "bool"
            }
          ],
          "internalType": "struct Certificates.Certificate",
          "name": "certificate",
          "type": "tuple"
        }
      ],
      "stateMutability": "view",
      "type": "function"
    },
    {
      "inputs": [
        {
          "internalType": "uint256",
          "name": "studentId",
          "type": "uint256"
        }
      ],
      "name": "getCertificatesByStudentId",
      "outputs": [
        {
          "components": [
            {
              "internalType": "uint256",
              "name": "id",
              "type": "uint256"
            },
            {
              "components": [
                {
                  "internalType": "uint256",
                  "name": "id",
                  "type": "uint256"
                },
                {
                  "internalType": "string",
                  "name": "name",
                  "type": "string"
                },
                {
                  "internalType": "string",
                  "name": "lastname",
                  "type": "string"
                },
                {
                  "internalType": "string",
                  "name": "docNumber",
                  "type": "string"
                },
                {
                  "internalType": "string",
                  "name": "docType",
                  "type": "string"
                },
                {
                  "internalType": "string",
                  "name": "sex",
                  "type": "string"
                },
                {
                  "internalType": "uint256",
                  "name": "registrationNumber",
                  "type": "uint256"
                }
              ],
              "internalType": "struct Certificates.Student",
              "name": "student",
              "type": "tuple"
            },
            {
              "components": [
                {
                  "internalType": "string",
                  "name": "universityName",
                  "type": "string"
                },
                {
                  "internalType": "string",
                  "name": "academicUnit",
                  "type": "string"
                },
                {
                  "internalType": "string",
                  "name": "degreeProgramName",
                  "type": "string"
                },
                {
                  "internalType": "string",
                  "name": "degreeProgramCurriculum",
                  "type": "string"
                },
                {
                  "internalType": "string",
                  "name": "degreeType",
                  "type": "string"
                }
              ],
              "internalType": "struct Certificates.UniversityDegree",
              "name": "universityDegree",
              "type": "tuple"
            },
            {
              "internalType": "string",
              "name": "waferNumber",
              "type": "string"
            },
            {
              "internalType": "uint256",
              "name": "createdAt",
              "type": "uint256"
            },
            {
              "internalType": "uint256",
              "name": "updatedAt",
              "type": "uint256"
            },
            {
              "internalType": "bool",
              "name": "active",
              "type": "bool"
            }
          ],
          "internalType": "struct Certificates.Certificate[]",
          "name": "",
          "type": "tuple[]"
        }
      ],
      "stateMutability": "view",
      "type": "function"
    },
    {
      "inputs": [
        {
          "components": [
            {
              "internalType": "uint256",
              "name": "id",
              "type": "uint256"
            },
            {
              "components": [
                {
                  "internalType": "uint256",
                  "name": "id",
                  "type": "uint256"
                },
                {
                  "internalType": "string",
                  "name": "name",
                  "type": "string"
                },
                {
                  "internalType": "string",
                  "name": "lastname",
                  "type": "string"
                },
                {
                  "internalType": "string",
                  "name": "docNumber",
                  "type": "string"
                },
                {
                  "internalType": "string",
                  "name": "docType",
                  "type": "string"
                },
                {
                  "internalType": "string",
                  "name": "sex",
                  "type": "string"
                },
                {
                  "internalType": "uint256",
                  "name": "registrationNumber",
                  "type": "uint256"
                }
              ],
              "internalType": "struct Certificates.Student",
              "name": "student",
              "type": "tuple"
            },
            {
              "components": [
                {
                  "internalType": "string",
                  "name": "universityName",
                  "type": "string"
                },
                {
                  "internalType": "string",
                  "name": "academicUnit",
                  "type": "string"
                },
                {
                  "internalType": "string",
                  "name": "degreeProgramName",
                  "type": "string"
                },
                {
                  "internalType": "string",
                  "name": "degreeProgramCurriculum",
                  "type": "string"
                },
                {
                  "internalType": "string",
                  "name": "degreeType",
                  "type": "string"
                }
              ],
              "internalType": "struct Certificates.UniversityDegree",
              "name": "universityDegree",
              "type": "tuple"
            },
            {
              "internalType": "string",
              "name": "waferNumber",
              "type": "string"
            },
            {
              "internalType": "uint256",
              "name": "createdAt",
              "type": "uint256"
            },
            {
              "internalType": "uint256",
              "name": "updatedAt",
              "type": "uint256"
            },
            {
              "internalType": "bool",
              "name": "active",
              "type": "bool"
            }
          ],
          "internalType": "struct Certificates.Certificate",
          "name": "_certificate",
          "type": "tuple"
        }
      ],
      "name": "createCertificate",
      "outputs": [],
      "stateMutability": "nonpayable",
      "type": "function"
    },
    {
      "inputs": [
        {
          "internalType": "uint256",
          "name": "certificateId",
          "type": "uint256"
        }
      ],
      "name": "deleteCertificate",
      "outputs": [],
      "stateMutability": "nonpayable",
      "type": "function"
    }
  ],
  "bytecode": "0x608060405234801561001057600080fd5b5060008081905550612fb5806100276000396000f3fe608060405234801561001057600080fd5b50600436106100575760003560e01c8063371b2c0f1461005c578063533aaf6e14610078578063883eeb6e146100a8578063c5463b31146100c4578063df6c55ec146100e2575b600080fd5b610076600480360381019061007191906124ed565b610112565b005b610092600480360381019061008d9190612536565b6106f1565b60405161009f9190612abe565b60405180910390f35b6100c260048036038101906100bd9190612536565b610dd9565b005b6100cc611706565b6040516100d99190612ae0565b60405180910390f35b6100fc60048036038101906100f79190612536565b61170c565b6040516101099190612a5c565b60405180910390f35b60008081548092919061012490612d7f565b91905055506000805490506000600283606001516040516101459190612a45565b90815260200160405180910390205414610194576040517f08c379a000000000000000000000000000000000000000000000000000000000815260040161018b90612a7e565b60405180910390fd5b60006003600084602001516000015181526020019081526020016000208054806020026020016040519081016040528092919081815260200182805480156101fb57602002820191906000526020600020905b8154815260200190600101908083116101e7575b505050505090506000815111156102cc5760005b81518110156102ca57600082828151811061022d5761022c612e26565b5b60200260200101519050846040015160400151805190602001206001600083815260200190815260200160002060080160020160405161026d9190612a2e565b604051809103902014156102b6576040517f08c379a00000000000000000000000000000000000000000000000000000000081526004016102ad90612a9e565b60405180910390fd5b5080806102c290612d7f565b91505061020f565b505b6040518060e0016040528083815260200184602001518152602001846040015181526020018460600151815260200142815260200142815260200160011515815250600160008481526020019081526020016000206000820151816000015560208201518160010160008201518160000155602082015181600101908051906020019061035a929190611f4c565b506040820151816002019080519060200190610377929190611f4c565b506060820151816003019080519060200190610394929190611f4c565b5060808201518160040190805190602001906103b1929190611f4c565b5060a08201518160050190805190602001906103ce929190611f4c565b5060c0820151816006015550506040820151816008016000820151816000019080519060200190610400929190611f4c565b50602082015181600101908051906020019061041d929190611f4c565b50604082015181600201908051906020019061043a929190611f4c565b506060820151816003019080519060200190610457929190611f4c565b506080820151816004019080519060200190610474929190611f4c565b505050606082015181600d019080519060200190610493929190611f4c565b50608082015181600e015560a082015181600f015560c08201518160100160006101000a81548160ff02191690831515021790555090505081600284606001516040516104e09190612a45565b90815260200160405180910390208190555060008151141561059e57600167ffffffffffffffff81111561051757610516612e55565b5b6040519080825280602002602001820160405280156105455781602001602082028036833780820191505090505b509050818160008151811061055d5761055c612e26565b5b602002602001018181525050806003600085602001516000015181526020019081526020016000209080519060200190610598929190611fd2565b506106a5565b6000600182516105ae9190612c3c565b67ffffffffffffffff8111156105c7576105c6612e55565b5b6040519080825280602002602001820160405280156105f55781602001602082028036833780820191505090505b50905060005b82518110156106515782818151811061061757610616612e26565b5b602002602001015182828151811061063257610631612e26565b5b602002602001018181525050808061064990612d7f565b9150506105fb565b50828183518151811061066757610666612e26565b5b6020026020010181815250508060036000866020015160000151815260200190815260200160002090805190602001906106a2929190611fd2565b50505b7ff52f2e805446b7719a3da77893242ff24303bab0e73cb02352846d0e7529574b824285602001516060015146326040516106e4959493929190612afb565b60405180910390a1505050565b6106f961201f565b600160008381526020019081526020016000206040518060e001604052908160008201548152602001600182016040518060e00160405290816000820154815260200160018201805461074b90612d1c565b80601f016020809104026020016040519081016040528092919081815260200182805461077790612d1c565b80156107c45780601f10610799576101008083540402835291602001916107c4565b820191906000526020600020905b8154815290600101906020018083116107a757829003601f168201915b505050505081526020016002820180546107dd90612d1c565b80601f016020809104026020016040519081016040528092919081815260200182805461080990612d1c565b80156108565780601f1061082b57610100808354040283529160200191610856565b820191906000526020600020905b81548152906001019060200180831161083957829003601f168201915b5050505050815260200160038201805461086f90612d1c565b80601f016020809104026020016040519081016040528092919081815260200182805461089b90612d1c565b80156108e85780601f106108bd576101008083540402835291602001916108e8565b820191906000526020600020905b8154815290600101906020018083116108cb57829003601f168201915b5050505050815260200160048201805461090190612d1c565b80601f016020809104026020016040519081016040528092919081815260200182805461092d90612d1c565b801561097a5780601f1061094f5761010080835404028352916020019161097a565b820191906000526020600020905b81548152906001019060200180831161095d57829003601f168201915b5050505050815260200160058201805461099390612d1c565b80601f01602080910402602001604051908101604052809291908181526020018280546109bf90612d1c565b8015610a0c5780601f106109e157610100808354040283529160200191610a0c565b820191906000526020600020905b8154815290600101906020018083116109ef57829003601f168201915b505050505081526020016006820154815250508152602001600882016040518060a0016040529081600082018054610a4390612d1c565b80601f0160208091040260200160405190810160405280929190818152602001828054610a6f90612d1c565b8015610abc5780601f10610a9157610100808354040283529160200191610abc565b820191906000526020600020905b815481529060010190602001808311610a9f57829003601f168201915b50505050508152602001600182018054610ad590612d1c565b80601f0160208091040260200160405190810160405280929190818152602001828054610b0190612d1c565b8015610b4e5780601f10610b2357610100808354040283529160200191610b4e565b820191906000526020600020905b815481529060010190602001808311610b3157829003601f168201915b50505050508152602001600282018054610b6790612d1c565b80601f0160208091040260200160405190810160405280929190818152602001828054610b9390612d1c565b8015610be05780601f10610bb557610100808354040283529160200191610be0565b820191906000526020600020905b815481529060010190602001808311610bc357829003601f168201915b50505050508152602001600382018054610bf990612d1c565b80601f0160208091040260200160405190810160405280929190818152602001828054610c2590612d1c565b8015610c725780601f10610c4757610100808354040283529160200191610c72565b820191906000526020600020905b815481529060010190602001808311610c5557829003601f168201915b50505050508152602001600482018054610c8b90612d1c565b80601f0160208091040260200160405190810160405280929190818152602001828054610cb790612d1c565b8015610d045780601f10610cd957610100808354040283529160200191610d04565b820191906000526020600020905b815481529060010190602001808311610ce757829003601f168201915b5050505050815250508152602001600d82018054610d2190612d1c565b80601f0160208091040260200160405190810160405280929190818152602001828054610d4d90612d1c565b8015610d9a5780601f10610d6f57610100808354040283529160200191610d9a565b820191906000526020600020905b815481529060010190602001808311610d7d57829003601f168201915b50505050508152602001600e8201548152602001600f82015481526020016010820160009054906101000a900460ff1615151515815250509050919050565b6000600160008381526020019081526020016000206040518060e001604052908160008201548152602001600182016040518060e001604052908160008201548152602001600182018054610e2d90612d1c565b80601f0160208091040260200160405190810160405280929190818152602001828054610e5990612d1c565b8015610ea65780601f10610e7b57610100808354040283529160200191610ea6565b820191906000526020600020905b815481529060010190602001808311610e8957829003601f168201915b50505050508152602001600282018054610ebf90612d1c565b80601f0160208091040260200160405190810160405280929190818152602001828054610eeb90612d1c565b8015610f385780601f10610f0d57610100808354040283529160200191610f38565b820191906000526020600020905b815481529060010190602001808311610f1b57829003601f168201915b50505050508152602001600382018054610f5190612d1c565b80601f0160208091040260200160405190810160405280929190818152602001828054610f7d90612d1c565b8015610fca5780601f10610f9f57610100808354040283529160200191610fca565b820191906000526020600020905b815481529060010190602001808311610fad57829003601f168201915b50505050508152602001600482018054610fe390612d1c565b80601f016020809104026020016040519081016040528092919081815260200182805461100f90612d1c565b801561105c5780601f106110315761010080835404028352916020019161105c565b820191906000526020600020905b81548152906001019060200180831161103f57829003601f168201915b5050505050815260200160058201805461107590612d1c565b80601f01602080910402602001604051908101604052809291908181526020018280546110a190612d1c565b80156110ee5780601f106110c3576101008083540402835291602001916110ee565b820191906000526020600020905b8154815290600101906020018083116110d157829003601f168201915b505050505081526020016006820154815250508152602001600882016040518060a001604052908160008201805461112590612d1c565b80601f016020809104026020016040519081016040528092919081815260200182805461115190612d1c565b801561119e5780601f106111735761010080835404028352916020019161119e565b820191906000526020600020905b81548152906001019060200180831161118157829003601f168201915b505050505081526020016001820180546111b790612d1c565b80601f01602080910402602001604051908101604052809291908181526020018280546111e390612d1c565b80156112305780601f1061120557610100808354040283529160200191611230565b820191906000526020600020905b81548152906001019060200180831161121357829003601f168201915b5050505050815260200160028201805461124990612d1c565b80601f016020809104026020016040519081016040528092919081815260200182805461127590612d1c565b80156112c25780601f10611297576101008083540402835291602001916112c2565b820191906000526020600020905b8154815290600101906020018083116112a557829003601f168201915b505050505081526020016003820180546112db90612d1c565b80601f016020809104026020016040519081016040528092919081815260200182805461130790612d1c565b80156113545780601f1061132957610100808354040283529160200191611354565b820191906000526020600020905b81548152906001019060200180831161133757829003601f168201915b5050505050815260200160048201805461136d90612d1c565b80601f016020809104026020016040519081016040528092919081815260200182805461139990612d1c565b80156113e65780601f106113bb576101008083540402835291602001916113e6565b820191906000526020600020905b8154815290600101906020018083116113c957829003601f168201915b5050505050815250508152602001600d8201805461140390612d1c565b80601f016020809104026020016040519081016040528092919081815260200182805461142f90612d1c565b801561147c5780601f106114515761010080835404028352916020019161147c565b820191906000526020600020905b81548152906001019060200180831161145f57829003601f168201915b50505050508152602001600e8201548152602001600f82015481526020016010820160009054906101000a900460ff161515151581525050905060008160c0019015159081151581525050428160a001818152505080600160008481526020019081526020016000206000820151816000015560208201518160010160008201518160000155602082015181600101908051906020019061151e929190611f4c565b50604082015181600201908051906020019061153b929190611f4c565b506060820151816003019080519060200190611558929190611f4c565b506080820151816004019080519060200190611575929190611f4c565b5060a0820151816005019080519060200190611592929190611f4c565b5060c08201518160060155505060408201518160080160008201518160000190805190602001906115c4929190611f4c565b5060208201518160010190805190602001906115e1929190611f4c565b5060408201518160020190805190602001906115fe929190611f4c565b50606082015181600301908051906020019061161b929190611f4c565b506080820151816004019080519060200190611638929190611f4c565b505050606082015181600d019080519060200190611657929190611f4c565b50608082015181600e015560a082015181600f015560c08201518160100160006101000a81548160ff0219169083151502179055509050506000600282606001516040516116a59190612a45565b9081526020016040518091039020819055507ff52f2e805446b7719a3da77893242ff24303bab0e73cb02352846d0e7529574b81600001514283602001516060015146326040516116fa959493929190612afb565b60405180910390a15050565b60005481565b606060006003600084815260200190815260200160002080548060200260200160405190810160405280929190818152602001828054801561176d57602002820191906000526020600020905b815481526020019060010190808311611759575b505050505090506000815167ffffffffffffffff81111561179157611790612e55565b5b6040519080825280602002602001820160405280156117ca57816020015b6117b761201f565b8152602001906001900390816117af5790505b50905060005b8251811015611f4157600160008483815181106117f0576117ef612e26565b5b6020026020010151815260200190815260200160002060100160009054906101000a900460ff1615611f2e576001600084838151811061183357611832612e26565b5b602002602001015181526020019081526020016000206040518060e001604052908160008201548152602001600182016040518060e00160405290816000820154815260200160018201805461188890612d1c565b80601f01602080910402602001604051908101604052809291908181526020018280546118b490612d1c565b80156119015780601f106118d657610100808354040283529160200191611901565b820191906000526020600020905b8154815290600101906020018083116118e457829003601f168201915b5050505050815260200160028201805461191a90612d1c565b80601f016020809104026020016040519081016040528092919081815260200182805461194690612d1c565b80156119935780601f1061196857610100808354040283529160200191611993565b820191906000526020600020905b81548152906001019060200180831161197657829003601f168201915b505050505081526020016003820180546119ac90612d1c565b80601f01602080910402602001604051908101604052809291908181526020018280546119d890612d1c565b8015611a255780601f106119fa57610100808354040283529160200191611a25565b820191906000526020600020905b815481529060010190602001808311611a0857829003601f168201915b50505050508152602001600482018054611a3e90612d1c565b80601f0160208091040260200160405190810160405280929190818152602001828054611a6a90612d1c565b8015611ab75780601f10611a8c57610100808354040283529160200191611ab7565b820191906000526020600020905b815481529060010190602001808311611a9a57829003601f168201915b50505050508152602001600582018054611ad090612d1c565b80601f0160208091040260200160405190810160405280929190818152602001828054611afc90612d1c565b8015611b495780601f10611b1e57610100808354040283529160200191611b49565b820191906000526020600020905b815481529060010190602001808311611b2c57829003601f168201915b505050505081526020016006820154815250508152602001600882016040518060a0016040529081600082018054611b8090612d1c565b80601f0160208091040260200160405190810160405280929190818152602001828054611bac90612d1c565b8015611bf95780601f10611bce57610100808354040283529160200191611bf9565b820191906000526020600020905b815481529060010190602001808311611bdc57829003601f168201915b50505050508152602001600182018054611c1290612d1c565b80601f0160208091040260200160405190810160405280929190818152602001828054611c3e90612d1c565b8015611c8b5780601f10611c6057610100808354040283529160200191611c8b565b820191906000526020600020905b815481529060010190602001808311611c6e57829003601f168201915b50505050508152602001600282018054611ca490612d1c565b80601f0160208091040260200160405190810160405280929190818152602001828054611cd090612d1c565b8015611d1d5780601f10611cf257610100808354040283529160200191611d1d565b820191906000526020600020905b815481529060010190602001808311611d0057829003601f168201915b50505050508152602001600382018054611d3690612d1c565b80601f0160208091040260200160405190810160405280929190818152602001828054611d6290612d1c565b8015611daf5780601f10611d8457610100808354040283529160200191611daf565b820191906000526020600020905b815481529060010190602001808311611d9257829003601f168201915b50505050508152602001600482018054611dc890612d1c565b80601f0160208091040260200160405190810160405280929190818152602001828054611df490612d1c565b8015611e415780601f10611e1657610100808354040283529160200191611e41565b820191906000526020600020905b815481529060010190602001808311611e2457829003601f168201915b5050505050815250508152602001600d82018054611e5e90612d1c565b80601f0160208091040260200160405190810160405280929190818152602001828054611e8a90612d1c565b8015611ed75780601f10611eac57610100808354040283529160200191611ed7565b820191906000526020600020905b815481529060010190602001808311611eba57829003601f168201915b50505050508152602001600e8201548152602001600f82015481526020016010820160009054906101000a900460ff161515151581525050828281518110611f2257611f21612e26565b5b60200260200101819052505b8080611f3990612d7f565b9150506117d0565b508092505050919050565b828054611f5890612d1c565b90600052602060002090601f016020900481019282611f7a5760008555611fc1565b82601f10611f9357805160ff1916838001178555611fc1565b82800160010185558215611fc1579182015b82811115611fc0578251825591602001919060010190611fa5565b5b509050611fce919061206a565b5090565b82805482825590600052602060002090810192821561200e579160200282015b8281111561200d578251825591602001919060010190611ff2565b5b50905061201b919061206a565b5090565b6040518060e0016040528060008152602001612039612087565b81526020016120466120c4565b81526020016060815260200160008152602001600081526020016000151581525090565b5b8082111561208357600081600090555060010161206b565b5090565b6040518060e00160405280600081526020016060815260200160608152602001606081526020016060815260200160608152602001600081525090565b6040518060a0016040528060608152602001606081526020016060815260200160608152602001606081525090565b600061210661210184612b7a565b612b55565b90508281526020810184848401111561212257612121612e93565b5b61212d848285612cda565b509392505050565b60008135905061214481612f51565b92915050565b600082601f83011261215f5761215e612e84565b5b813561216f8482602086016120f3565b91505092915050565b600060e0828403121561218e5761218d612e89565b5b61219860e0612b55565b905060006121a8848285016124d8565b600083015250602082013567ffffffffffffffff8111156121cc576121cb612e8e565b5b6121d884828501612280565b602083015250604082013567ffffffffffffffff8111156121fc576121fb612e8e565b5b612208848285016123c0565b604083015250606082013567ffffffffffffffff81111561222c5761222b612e8e565b5b6122388482850161214a565b606083015250608061224c848285016124d8565b60808301525060a0612260848285016124d8565b60a08301525060c061227484828501612135565b60c08301525092915050565b600060e0828403121561229657612295612e89565b5b6122a060e0612b55565b905060006122b0848285016124d8565b600083015250602082013567ffffffffffffffff8111156122d4576122d3612e8e565b5b6122e08482850161214a565b602083015250604082013567ffffffffffffffff81111561230457612303612e8e565b5b6123108482850161214a565b604083015250606082013567ffffffffffffffff81111561233457612333612e8e565b5b6123408482850161214a565b606083015250608082013567ffffffffffffffff81111561236457612363612e8e565b5b6123708482850161214a565b60808301525060a082013567ffffffffffffffff81111561239457612393612e8e565b5b6123a08482850161214a565b60a08301525060c06123b4848285016124d8565b60c08301525092915050565b600060a082840312156123d6576123d5612e89565b5b6123e060a0612b55565b9050600082013567ffffffffffffffff811115612400576123ff612e8e565b5b61240c8482850161214a565b600083015250602082013567ffffffffffffffff8111156124305761242f612e8e565b5b61243c8482850161214a565b602083015250604082013567ffffffffffffffff8111156124605761245f612e8e565b5b61246c8482850161214a565b604083015250606082013567ffffffffffffffff8111156124905761248f612e8e565b5b61249c8482850161214a565b606083015250608082013567ffffffffffffffff8111156124c0576124bf612e8e565b5b6124cc8482850161214a565b60808301525092915050565b6000813590506124e781612f68565b92915050565b60006020828403121561250357612502612e9d565b5b600082013567ffffffffffffffff81111561252157612520612e98565b5b61252d84828501612178565b91505092915050565b60006020828403121561254c5761254b612e9d565b5b600061255a848285016124d8565b91505092915050565b600061256f8383612772565b905092915050565b61258081612c92565b82525050565b600061259182612bd0565b61259b8185612bf3565b9350836020820285016125ad85612bab565b8060005b858110156125e957848403895281516125ca8582612563565b94506125d583612be6565b925060208a019950506001810190506125b1565b50829750879550505050505092915050565b61260481612ca4565b82525050565b6000815461261781612d1c565b6126218186612c04565b9450600182166000811461263c576001811461264d57612680565b60ff19831686528186019350612680565b61265685612bbb565b60005b8381101561267857815481890152600182019150602081019050612659565b838801955050505b50505092915050565b600061269482612bdb565b61269e8185612c0f565b93506126ae818560208601612ce9565b6126b781612ea2565b840191505092915050565b60006126cd82612bdb565b6126d78185612c20565b93506126e7818560208601612ce9565b6126f081612ea2565b840191505092915050565b600061270682612bdb565b6127108185612c31565b9350612720818560208601612ce9565b80840191505092915050565b6000612739601d83612c20565b915061274482612eb3565b602082019050919050565b600061275c604183612c20565b915061276782612edc565b606082019050919050565b600060e08301600083015161278a6000860182612a10565b50602083015184820360208601526127a282826128c6565b915050604083015184820360408601526127bc828261297e565b915050606083015184820360608601526127d68282612689565b91505060808301516127eb6080860182612a10565b5060a08301516127fe60a0860182612a10565b5060c083015161281160c08601826125fb565b508091505092915050565b600060e0830160008301516128346000860182612a10565b506020830151848203602086015261284c82826128c6565b91505060408301518482036040860152612866828261297e565b915050606083015184820360608601526128808282612689565b91505060808301516128956080860182612a10565b5060a08301516128a860a0860182612a10565b5060c08301516128bb60c08601826125fb565b508091505092915050565b600060e0830160008301516128de6000860182612a10565b50602083015184820360208601526128f68282612689565b915050604083015184820360408601526129108282612689565b9150506060830151848203606086015261292a8282612689565b915050608083015184820360808601526129448282612689565b91505060a083015184820360a086015261295e8282612689565b91505060c083015161297360c0860182612a10565b508091505092915050565b600060a083016000830151848203600086015261299b8282612689565b915050602083015184820360208601526129b58282612689565b915050604083015184820360408601526129cf8282612689565b915050606083015184820360608601526129e98282612689565b91505060808301518482036080860152612a038282612689565b9150508091505092915050565b612a1981612cd0565b82525050565b612a2881612cd0565b82525050565b6000612a3a828461260a565b915081905092915050565b6000612a5182846126fb565b915081905092915050565b60006020820190508181036000830152612a768184612586565b905092915050565b60006020820190508181036000830152612a978161272c565b9050919050565b60006020820190508181036000830152612ab78161274f565b9050919050565b60006020820190508181036000830152612ad8818461281c565b905092915050565b6000602082019050612af56000830184612a1f565b92915050565b600060a082019050612b106000830188612a1f565b612b1d6020830187612a1f565b8181036040830152612b2f81866126c2565b9050612b3e6060830185612a1f565b612b4b6080830184612577565b9695505050505050565b6000612b5f612b70565b9050612b6b8282612d4e565b919050565b6000604051905090565b600067ffffffffffffffff821115612b9557612b94612e55565b5b612b9e82612ea2565b9050602081019050919050565b6000819050602082019050919050565b60008190508160005260206000209050919050565b600081519050919050565b600081519050919050565b6000602082019050919050565b600082825260208201905092915050565b600081905092915050565b600082825260208201905092915050565b600082825260208201905092915050565b600081905092915050565b6000612c4782612cd0565b9150612c5283612cd0565b9250827fffffffffffffffffffffffffffffffffffffffffffffffffffffffffffffffff03821115612c8757612c86612dc8565b5b828201905092915050565b6000612c9d82612cb0565b9050919050565b60008115159050919050565b600073ffffffffffffffffffffffffffffffffffffffff82169050919050565b6000819050919050565b82818337600083830152505050565b60005b83811015612d07578082015181840152602081019050612cec565b83811115612d16576000848401525b50505050565b60006002820490506001821680612d3457607f821691505b60208210811415612d4857612d47612df7565b5b50919050565b612d5782612ea2565b810181811067ffffffffffffffff82111715612d7657612d75612e55565b5b80604052505050565b6000612d8a82612cd0565b91507fffffffffffffffffffffffffffffffffffffffffffffffffffffffffffffffff821415612dbd57612dbc612dc8565b5b600182019050919050565b7f4e487b7100000000000000000000000000000000000000000000000000000000600052601160045260246000fd5b7f4e487b7100000000000000000000000000000000000000000000000000000000600052602260045260246000fd5b7f4e487b7100000000000000000000000000000000000000000000000000000000600052603260045260246000fd5b7f4e487b7100000000000000000000000000000000000000000000000000000000600052604160045260246000fd5b600080fd5b600080fd5b600080fd5b600080fd5b600080fd5b600080fd5b6000601f19601f8301169050919050565b7f456c206e756d65726f206465206f626c6561207961206578697374652e000000600082015250565b7f59612065786973746520756e20636572746966696361646f20636f6e20656c2060008201527f6d69736d6f206e6f6d6272652070617261206573746520657374756469616e7460208201527f6500000000000000000000000000000000000000000000000000000000000000604082015250565b612f5a81612ca4565b8114612f6557600080fd5b50565b612f7181612cd0565b8114612f7c57600080fd5b5056fea2646970667358221220dfed3f28ef7346c1ccd7092f0e88836f9795970e54069f9ddf0930b5866d665e64736f6c63430008060033",
  "immutableReferences": {},
  "source": "// SPDX-License-Identifier: GPL-3.0\npragma solidity >=0.8.6 <0.9.0;\n\ncontract Certificates {\n    // Variables.\n    uint256 public amountCertificates;\n\n    constructor() {\n        amountCertificates = 0;\n    }\n\n    // Estudiante.\n    struct Student {\n        uint256 id;\n        string name;\n        string lastname;\n        string docNumber;\n        string docType;\n        string sex;\n        uint256 registrationNumber;\n    }\n    // Carrera.\n    struct UniversityDegree {\n        string universityName;\n        string academicUnit; // Facultad\n        string degreeProgramName; // Nombre de la carrera\n        string degreeProgramCurriculum; // Plan de estudios\n        string degreeType; // Tipo de carrara\n    }\n\n    // Titulo.\n    struct Certificate {\n        uint256 id;\n        Student student;\n        UniversityDegree universityDegree;\n        string waferNumber; // Numero de oblea.\n        uint256 createdAt;\n        uint256 updatedAt;\n        bool active; // Activo\n    }\n\n    event CertificateCreated(\n        uint256 id,\n        uint256 date,\n        string docNumber,\n        uint chainId,\n        address origin\n    );\n\n    // Titulos (idTitulo => titulo).\n    mapping(uint256 => Certificate) private certificates;\n\n    // Obleas (codigo_oblea => idTitulo).\n    mapping(string => uint256) private wafers;\n\n    // Estudiantes con titulos. (idEstudiante => idTitulo).\n    mapping(uint256 => uint256[]) private student_has_certificates;\n\n    function getCertificatesById(\n        uint256 id\n    ) public view returns (Certificate memory certificate) {\n        return certificates[id];\n    }\n\n    function getCertificatesByStudentId(\n        uint256 studentId\n    ) public view returns (Certificate[] memory) {\n        uint256[] memory studentCertificatesids = student_has_certificates[\n            studentId\n        ];\n        Certificate[] memory studentCertificates = new Certificate[](\n            studentCertificatesids.length\n        );\n        for (uint256 i = 0; i < studentCertificatesids.length; i++) {\n            // Filtro aquellas activas.\n            if (certificates[studentCertificatesids[i]].active) {\n                studentCertificates[i] = certificates[\n                    studentCertificatesids[i]\n                ];\n            }\n            // studentCertificates[i] = certificates[studentCertificatesids[i]];\n        }\n        return studentCertificates;\n    }\n\n    function createCertificate(Certificate memory _certificate) public {\n        // Aumento el indice.\n        amountCertificates++;\n        // Creo el nuevo Id del titulo.\n        uint256 newCertificateId = amountCertificates;\n\n        // Controlo que no exista el codigo de la oblea en el sistema.\n        require(\n            wafers[_certificate.waferNumber] == 0,\n            \"El numero de oblea ya existe.\"\n        );\n\n        // Obtengo los ids de los titulos del estudiante.\n        uint256[] memory studentCertificatesids = student_has_certificates[\n            _certificate.student.id\n        ];\n\n        // Verifica si el estudiante ya tiene un certificado asociado a la misma carrera.\n        if (studentCertificatesids.length > 0) {\n            for (uint i = 0; i < studentCertificatesids.length; i++) {\n                uint256 certificateId = studentCertificatesids[i];\n                require(\n                    keccak256(\n                        bytes(\n                            certificates[certificateId]\n                                .universityDegree\n                                .degreeProgramName\n                        )\n                    ) !=\n                        keccak256(\n                            bytes(\n                                _certificate.universityDegree.degreeProgramName\n                            )\n                        ),\n                    \"Ya existe un certificado con el mismo nombre para este estudiante\"\n                );\n            }\n        }\n\n        // Creo el titulo con el nuevo id y lo guardo en el mapa.\n        certificates[newCertificateId] = Certificate(\n            newCertificateId,\n            _certificate.student,\n            _certificate.universityDegree,\n            _certificate.waferNumber,\n            block.timestamp,\n            block.timestamp,\n            true\n        );\n\n        // Relaciono la oblea con el titulo.\n        wafers[_certificate.waferNumber] = newCertificateId;\n\n        // Creo la relacion entre titulo y el estudiante.\n\n        // Si el estudiante es nuevo. No tiene titulos asociados.\n        if (studentCertificatesids.length == 0) {\n            // Reutilizo la lista.\n            studentCertificatesids = new uint256[](1);\n            // Guardo el id del titulo.\n            studentCertificatesids[0] = newCertificateId;\n            student_has_certificates[\n                _certificate.student.id\n            ] = studentCertificatesids;\n\n            // todo: realizar controles para no sobreescribir claves.\n        } else {\n            // Creo la nueva lista de studentCertificatesids.\n            uint256[] memory newStudentCertificatesIds = new uint256[](\n                studentCertificatesids.length + 1\n            );\n            for (uint256 i = 0; i < studentCertificatesids.length; i++) {\n                newStudentCertificatesIds[i] = studentCertificatesids[i];\n            }\n            // Agrego el nuevo id del titulo.\n            newStudentCertificatesIds[\n                studentCertificatesids.length\n            ] = newCertificateId;\n            student_has_certificates[\n                _certificate.student.id\n            ] = newStudentCertificatesIds;\n        }\n        emit CertificateCreated(\n            newCertificateId,\n            block.timestamp,\n            _certificate.student.docNumber,\n            block.chainid,\n            tx.origin\n        );\n    }\n\n    function deleteCertificate(uint256 certificateId) public {\n        // Obtengo el titulo.\n        Certificate memory certificate = certificates[certificateId];\n        // Inhabilito el acceso del titulo.\n        certificate.active = false;\n        certificate.updatedAt = block.timestamp;\n        certificates[certificateId] = certificate;\n\n        // Elimino la oblea.\n        wafers[certificate.waferNumber] = 0;\n\n        emit CertificateCreated(\n            certificate.id,\n            block.timestamp,\n            certificate.student.docNumber,\n            block.chainid,\n            tx.origin\n        );\n    }\n}\n",
  "sourcePath": "/Users/federicoverges/Fede/ProyectosPersonales/Tesis/blockchain/certificateContract/contracts/Certificates.sol",
  "compiler": {
    "name": "solc",
    "version": "0.8.6+commit.11564f7e.Emscripten.clang"
  },
  "schemaVersion": "3.4.16",
  "updatedAt": "2024-05-04T20:31:05.210Z",
  "devdoc": {
    "kind": "dev",
    "methods": {},
    "version": 1
  },
  "userdoc": {
    "kind": "user",
    "methods": {},
    "version": 1
  }
}